{
  "contractName": "TeutToken",
  "abi": [
    {
      "inputs": [
        {
          "internalType": "string",
          "name": "token_name",
          "type": "string"
        },
        {
          "internalType": "string",
          "name": "short_symbol",
          "type": "string"
        },
        {
          "internalType": "uint8",
          "name": "token_decimals",
          "type": "uint8"
        },
        {
          "internalType": "uint256",
          "name": "token_totalSupply",
          "type": "uint256"
        }
      ],
      "stateMutability": "nonpayable",
      "type": "constructor"
    },
    {
      "anonymous": false,
      "inputs": [
        {
          "indexed": true,
          "internalType": "address",
          "name": "from",
          "type": "address"
        },
        {
          "indexed": true,
          "internalType": "address",
          "name": "to",
          "type": "address"
        },
        {
          "indexed": false,
          "internalType": "uint256",
          "name": "value",
          "type": "uint256"
        }
      ],
      "name": "Transfer",
      "type": "event"
    },
    {
      "inputs": [],
      "name": "decimals",
      "outputs": [
        {
          "internalType": "uint8",
          "name": "",
          "type": "uint8"
        }
      ],
      "stateMutability": "view",
      "type": "function",
      "constant": true
    },
    {
      "inputs": [],
      "name": "symbol",
      "outputs": [
        {
          "internalType": "string",
          "name": "",
          "type": "string"
        }
      ],
      "stateMutability": "view",
      "type": "function",
      "constant": true
    },
    {
      "inputs": [],
      "name": "name",
      "outputs": [
        {
          "internalType": "string",
          "name": "",
          "type": "string"
        }
      ],
      "stateMutability": "view",
      "type": "function",
      "constant": true
    },
    {
      "inputs": [],
      "name": "totalSupply",
      "outputs": [
        {
          "internalType": "uint256",
          "name": "",
          "type": "uint256"
        }
      ],
      "stateMutability": "view",
      "type": "function",
      "constant": true
    },
    {
      "inputs": [
        {
          "internalType": "address",
          "name": "account",
          "type": "address"
        }
      ],
      "name": "balanceOf",
      "outputs": [
        {
          "internalType": "uint256",
          "name": "",
          "type": "uint256"
        }
      ],
      "stateMutability": "view",
      "type": "function",
      "constant": true
    },
    {
      "inputs": [
        {
          "internalType": "address",
          "name": "recipient",
          "type": "address"
        },
        {
          "internalType": "uint256",
          "name": "amount",
          "type": "uint256"
        }
      ],
      "name": "transfer",
      "outputs": [
        {
          "internalType": "bool",
          "name": "",
          "type": "bool"
        }
      ],
      "stateMutability": "nonpayable",
      "type": "function"
    },
    {
      "inputs": [
        {
          "internalType": "address",
          "name": "account",
          "type": "address"
        },
        {
          "internalType": "uint256",
          "name": "amount",
          "type": "uint256"
        }
      ],
      "name": "burn",
      "outputs": [
        {
          "internalType": "bool",
          "name": "",
          "type": "bool"
        }
      ],
      "stateMutability": "nonpayable",
      "type": "function"
    },
    {
      "inputs": [
        {
          "internalType": "address",
          "name": "account",
          "type": "address"
        },
        {
          "internalType": "uint256",
          "name": "amount",
          "type": "uint256"
        }
      ],
      "name": "mint",
      "outputs": [
        {
          "internalType": "bool",
          "name": "",
          "type": "bool"
        }
      ],
      "stateMutability": "nonpayable",
      "type": "function"
    }
  ],
  "bytecode": "0x60806040523480156200001157600080fd5b506040516200162a3803806200162a833981810160405281019062000037919062000295565b83600390805190602001906200004f92919062000145565b5082600290805190602001906200006892919062000145565b5081600160006101000a81548160ff021916908360ff16021790555080600081905550600054600460003373ffffffffffffffffffffffffffffffffffffffff1673ffffffffffffffffffffffffffffffffffffffff168152602001908152602001600020819055503373ffffffffffffffffffffffffffffffffffffffff16600073ffffffffffffffffffffffffffffffffffffffff167fddf252ad1be2c89b69c2b068fc378daa952ba7f163c4a11628f55a4df523b3ef60005460405162000133919062000344565b60405180910390a3505050506200051c565b82805462000153906200040d565b90600052602060002090601f016020900481019282620001775760008555620001c3565b82601f106200019257805160ff1916838001178555620001c3565b82800160010185558215620001c3579182015b82811115620001c2578251825591602001919060010190620001a5565b5b509050620001d29190620001d6565b5090565b5b80821115620001f1576000816000905550600101620001d7565b5090565b60006200020c62000206846200038a565b62000361565b9050828152602081018484840111156200022557600080fd5b62000232848285620003d7565b509392505050565b600082601f8301126200024c57600080fd5b81516200025e848260208601620001f5565b91505092915050565b6000815190506200027881620004e8565b92915050565b6000815190506200028f8162000502565b92915050565b60008060008060808587031215620002ac57600080fd5b600085015167ffffffffffffffff811115620002c757600080fd5b620002d5878288016200023a565b945050602085015167ffffffffffffffff811115620002f357600080fd5b62000301878288016200023a565b935050604062000314878288016200027e565b9250506060620003278782880162000267565b91505092959194509250565b6200033e81620003c0565b82525050565b60006020820190506200035b600083018462000333565b92915050565b60006200036d62000380565b90506200037b828262000443565b919050565b6000604051905090565b600067ffffffffffffffff821115620003a857620003a7620004a8565b5b620003b382620004d7565b9050602081019050919050565b6000819050919050565b600060ff82169050919050565b60005b83811015620003f7578082015181840152602081019050620003da565b8381111562000407576000848401525b50505050565b600060028204905060018216806200042657607f821691505b602082108114156200043d576200043c62000479565b5b50919050565b6200044e82620004d7565b810181811067ffffffffffffffff8211171562000470576200046f620004a8565b5b80604052505050565b7f4e487b7100000000000000000000000000000000000000000000000000000000600052602260045260246000fd5b7f4e487b7100000000000000000000000000000000000000000000000000000000600052604160045260246000fd5b6000601f19601f8301169050919050565b620004f381620003c0565b8114620004ff57600080fd5b50565b6200050d81620003ca565b81146200051957600080fd5b50565b6110fe806200052c6000396000f3fe608060405234801561001057600080fd5b50600436106100885760003560e01c806370a082311161005b57806370a082311461011757806395d89b41146101475780639dc29fac14610165578063a9059cbb1461019557610088565b806306fdde031461008d57806318160ddd146100ab578063313ce567146100c957806340c10f19146100e7575b600080fd5b6100956101c5565b6040516100a29190610bd9565b60405180910390f35b6100b3610257565b6040516100c09190610cbb565b60405180910390f35b6100d1610260565b6040516100de9190610cd6565b60405180910390f35b61010160048036038101906100fc9190610a4a565b610277565b60405161010e9190610bbe565b60405180910390f35b610131600480360381019061012c9190610a21565b61028d565b60405161013e9190610cbb565b60405180910390f35b61014f6102d6565b60405161015c9190610bd9565b60405180910390f35b61017f600480360381019061017a9190610a4a565b610368565b60405161018c9190610bbe565b60405180910390f35b6101af60048036038101906101aa9190610a4a565b61037e565b6040516101bc9190610bbe565b60405180910390f35b6060600380546101d490610e1f565b80601f016020809104026020016040519081016040528092919081815260200182805461020090610e1f565b801561024d5780601f106102225761010080835404028352916020019161024d565b820191906000526020600020905b81548152906001019060200180831161023057829003601f168201915b5050505050905090565b60008054905090565b6000600160009054906101000a900460ff16905090565b60006102838383610395565b6001905092915050565b6000600460008373ffffffffffffffffffffffffffffffffffffffff1673ffffffffffffffffffffffffffffffffffffffff168152602001908152602001600020549050919050565b6060600280546102e590610e1f565b80601f016020809104026020016040519081016040528092919081815260200182805461031190610e1f565b801561035e5780601f106103335761010080835404028352916020019161035e565b820191906000526020600020905b81548152906001019060200180831161034157829003601f168201915b5050505050905090565b60006103748383610511565b6001905092915050565b600061038b33848461070f565b6001905092915050565b600073ffffffffffffffffffffffffffffffffffffffff168273ffffffffffffffffffffffffffffffffffffffff161415610405576040517f08c379a00000000000000000000000000000000000000000000000000000000081526004016103fc90610c3b565b60405180910390fd5b806000546104139190610d0d565b60008190555080600460008473ffffffffffffffffffffffffffffffffffffffff1673ffffffffffffffffffffffffffffffffffffffff168152602001908152602001600020546104649190610d0d565b600460008473ffffffffffffffffffffffffffffffffffffffff1673ffffffffffffffffffffffffffffffffffffffff168152602001908152602001600020819055508173ffffffffffffffffffffffffffffffffffffffff16600073ffffffffffffffffffffffffffffffffffffffff167fddf252ad1be2c89b69c2b068fc378daa952ba7f163c4a11628f55a4df523b3ef836040516105059190610cbb565b60405180910390a35050565b600073ffffffffffffffffffffffffffffffffffffffff168273ffffffffffffffffffffffffffffffffffffffff161415610581576040517f08c379a000000000000000000000000000000000000000000000000000000000815260040161057890610c9b565b60405180910390fd5b80600460008473ffffffffffffffffffffffffffffffffffffffff1673ffffffffffffffffffffffffffffffffffffffff168152602001908152602001600020541015610603576040517f08c379a00000000000000000000000000000000000000000000000000000000081526004016105fa90610bfb565b60405180910390fd5b806000546106119190610d63565b60008190555080600460008473ffffffffffffffffffffffffffffffffffffffff1673ffffffffffffffffffffffffffffffffffffffff168152602001908152602001600020546106629190610d63565b600460008473ffffffffffffffffffffffffffffffffffffffff1673ffffffffffffffffffffffffffffffffffffffff16815260200190815260200160002081905550600073ffffffffffffffffffffffffffffffffffffffff168273ffffffffffffffffffffffffffffffffffffffff167fddf252ad1be2c89b69c2b068fc378daa952ba7f163c4a11628f55a4df523b3ef836040516107039190610cbb565b60405180910390a35050565b600073ffffffffffffffffffffffffffffffffffffffff168373ffffffffffffffffffffffffffffffffffffffff16141561077f576040517f08c379a000000000000000000000000000000000000000000000000000000000815260040161077690610c5b565b60405180910390fd5b600073ffffffffffffffffffffffffffffffffffffffff168273ffffffffffffffffffffffffffffffffffffffff1614156107ef576040517f08c379a00000000000000000000000000000000000000000000000000000000081526004016107e690610c7b565b60405180910390fd5b80600460008573ffffffffffffffffffffffffffffffffffffffff1673ffffffffffffffffffffffffffffffffffffffff168152602001908152602001600020541015610871576040517f08c379a000000000000000000000000000000000000000000000000000000000815260040161086890610c1b565b60405180910390fd5b80600460008573ffffffffffffffffffffffffffffffffffffffff1673ffffffffffffffffffffffffffffffffffffffff168152602001908152602001600020546108bc9190610d63565b600460008573ffffffffffffffffffffffffffffffffffffffff1673ffffffffffffffffffffffffffffffffffffffff1681526020019081526020016000208190555080600460008473ffffffffffffffffffffffffffffffffffffffff1673ffffffffffffffffffffffffffffffffffffffff1681526020019081526020016000205461094a9190610d0d565b600460008473ffffffffffffffffffffffffffffffffffffffff1673ffffffffffffffffffffffffffffffffffffffff168152602001908152602001600020819055508173ffffffffffffffffffffffffffffffffffffffff168373ffffffffffffffffffffffffffffffffffffffff167fddf252ad1be2c89b69c2b068fc378daa952ba7f163c4a11628f55a4df523b3ef836040516109ea9190610cbb565b60405180910390a3505050565b600081359050610a068161109a565b92915050565b600081359050610a1b816110b1565b92915050565b600060208284031215610a3357600080fd5b6000610a41848285016109f7565b91505092915050565b60008060408385031215610a5d57600080fd5b6000610a6b858286016109f7565b9250506020610a7c85828601610a0c565b9150509250929050565b610a8f81610da9565b82525050565b6000610aa082610cf1565b610aaa8185610cfc565b9350610aba818560208601610dec565b610ac381610eaf565b840191505092915050565b6000610adb603183610cfc565b9150610ae682610ec0565b604082019050919050565b6000610afe603583610cfc565b9150610b0982610f0f565b604082019050919050565b6000610b21602683610cfc565b9150610b2c82610f5e565b604082019050919050565b6000610b44602583610cfc565b9150610b4f82610fad565b604082019050919050565b6000610b67602383610cfc565b9150610b7282610ffc565b604082019050919050565b6000610b8a602883610cfc565b9150610b958261104b565b604082019050919050565b610ba981610dd5565b82525050565b610bb881610ddf565b82525050565b6000602082019050610bd36000830184610a86565b92915050565b60006020820190508181036000830152610bf38184610a95565b905092915050565b60006020820190508181036000830152610c1481610ace565b9050919050565b60006020820190508181036000830152610c3481610af1565b9050919050565b60006020820190508181036000830152610c5481610b14565b9050919050565b60006020820190508181036000830152610c7481610b37565b9050919050565b60006020820190508181036000830152610c9481610b5a565b9050919050565b60006020820190508181036000830152610cb481610b7d565b9050919050565b6000602082019050610cd06000830184610ba0565b92915050565b6000602082019050610ceb6000830184610baf565b92915050565b600081519050919050565b600082825260208201905092915050565b6000610d1882610dd5565b9150610d2383610dd5565b9250827fffffffffffffffffffffffffffffffffffffffffffffffffffffffffffffffff03821115610d5857610d57610e51565b5b828201905092915050565b6000610d6e82610dd5565b9150610d7983610dd5565b925082821015610d8c57610d8b610e51565b5b828203905092915050565b6000610da282610db5565b9050919050565b60008115159050919050565b600073ffffffffffffffffffffffffffffffffffffffff82169050919050565b6000819050919050565b600060ff82169050919050565b60005b83811015610e0a578082015181840152602081019050610def565b83811115610e19576000848401525b50505050565b60006002820490506001821680610e3757607f821691505b60208210811415610e4b57610e4a610e80565b5b50919050565b7f4e487b7100000000000000000000000000000000000000000000000000000000600052601160045260246000fd5b7f4e487b7100000000000000000000000000000000000000000000000000000000600052602260045260246000fd5b6000601f19601f8301169050919050565b7f54657574546f6b656e3a2043616e6e6f74206275726e206d6f7265207468616e60008201527f20746865206163636f756e74206f776e73000000000000000000000000000000602082015250565b7f54657574546f6b656e3a2063616e74207472616e73666572206d6f726520746860008201527f616e20796f7572206163636f756e7420686f6c64730000000000000000000000602082015250565b7f54657574546f6b656e3a2063616e6e6f74206d696e7420746f207a65726f206160008201527f6464726573730000000000000000000000000000000000000000000000000000602082015250565b7f54657574546f6b656e3a207472616e736665722066726f6d207a65726f20616460008201527f6472657373000000000000000000000000000000000000000000000000000000602082015250565b7f54657574546f6b656e3a207472616e7366657220746f207a65726f206164647260008201527f6573730000000000000000000000000000000000000000000000000000000000602082015250565b7f54657574546f6b656e3a2063616e6e6f74206275726e2066726f6d207a65726f60008201527f2061646472657373000000000000000000000000000000000000000000000000602082015250565b6110a381610d97565b81146110ae57600080fd5b50565b6110ba81610dd5565b81146110c557600080fd5b5056fea26469706673582212208197919d83ce899e4882c54ee42c294c184c4daf98e04ec79aeb8a621a83a8f264736f6c63430008040033",
  "immutableReferences": {},
  "source": "// SPDX-License-Identifier: MIT\npragma solidity ^0.8.4;\n\n\n//Define our TeutToken smart contract.\n\n/**\n* @notice DevToken is a development token that we use to learn how to code solidity \n* and what BEP-20 interface requires\n*/\n\ncontract TeutToken {\n\n /**\n  * @notice Our Tokens required variables that are needed to operate everything\n  */\n\n  uint private _totalSupply;\n  uint8 private _decimals;\n  string private _symbol;\n  string private _name;\n\n\n  /**\n  * @notice _balances is a mapping that contains a address as KEY \n  * and the balance of the address as the value\n  */\n\n  mapping(address => uint256) private _balances;\n\n\n  /**\n  * @notice Events are created below.\n  * Transfer event is a event that notify the blockchain that a transfer of assets has taken place\n  *\n  */\n\n  event Transfer(address indexed from, address indexed to, uint256 value);\n\n\n      /**\n    * @notice constructor will be triggered when we create the Smart contract\n    * _name = name of the token\n    * _short_symbol = Short Symbol name for the token\n    * token_decimals = The decimal precision of the Token, defaults 18\n    * _totalSupply is how much Tokens there are totally \n    */\n    //Constructor is a function that will run when the Token is created\n    constructor(string memory token_name, string memory short_symbol, uint8 token_decimals, uint256 token_totalSupply){\n        _name = token_name;\n        _symbol = short_symbol;\n        _decimals = token_decimals;\n        _totalSupply = token_totalSupply;\n\n         // Add all the tokens created to the creator of the token\n         _balances[msg.sender]= _totalSupply;\n\n         // Emit an Transfer event to notify the blockchain that an Transfer has occured\n         emit Transfer(address(0), msg.sender, _totalSupply);\n\n\n    }\n\n    /**\n  * @notice decimals will return the number of decimal precision the Token is deployed with\n  */\n\n  function decimals() external view returns (uint8){\n      return _decimals;\n  }\n\n   /**\n  * @notice symbol will return the Token's symbol \n  */\n\n  function symbol() external view returns(string memory){\n      return _symbol;\n  }\n\n  /**\n  * @notice name will return the Token's symbol \n  */\n  function name() external view returns (string memory){\n    return _name;\n  }\n  /**\n  * @notice totalSupply will return the tokens total supply of tokens\n  */\n  function totalSupply() external view returns (uint256){\n    return _totalSupply;\n  }\n\n\n   /**\n  * @notice balanceOf will return the account balance for the given account\n  */\n  function balanceOf(address account) external view returns (uint256) {\n    return _balances[account];\n  } \n\n  /**\n  * @notice mint will create tokens on the address inputted and then increase the total supply\n  *\n  * It will also emit an Transfer event, with sender set to zero address (address(0))\n  * \n  * Requires that the address that is recieveing the tokens is not zero address\n  */\n  function _mint(address account, uint256 amount) internal {\n    require(account != address(0), \"TeutToken: cannot mint to zero address\");\n\n    // Increase total supply\n    _totalSupply = _totalSupply + (amount);\n    // Add amount to the account balance using the balance mapping\n    _balances[account] = _balances[account] + amount;\n    // Emit our event to log the action\n    emit Transfer(address(0), account, amount);\n  }\n\n  /**\n  * @notice burn will destroy tokens from an address inputted and then decrease total supply\n  * An Transfer event will emit with receiever set to zero address\n  * \n  * Requires \n  * - Account cannot be zero\n  * - Account balance has to be bigger or equal to amount\n  */\n\n  function _burn(address account, uint256 amount) internal {\n      require (account != address(0), \"TeutToken: cannot burn from zero address\");\n      require(_balances[account] >= amount, \"TeutToken: Cannot burn more than the account owns\");\n\n      //decrease burned amount from totalsupply\n      _totalSupply= _totalSupply- (amount);\n      // decrease burned amount from account balance\n      _balances[account]=_balances[account]-(amount);\n      emit Transfer(account, address(0), amount);\n  }\n   /**\n  * @notice transfer is used to transfer funds from the sender to the recipient\n  * This function is only callable from outside the contract. For internal usage see \n  * _transfer\n  *\n  * Requires\n  * - Caller cannot be zero\n  * - Caller must have a balance = or bigger than amount\n  *\n   */\n\n  /* function transfer(address sender, address receiver, uint256 amount) external {\n       require(_balances[sender]>=amount, \"Sender's account balance less then amount\");\n\n       _balances[sender]=_balances[sender]-(amount);\n       _balances[receiver]=_balances[receiver]+(amount);\n   } */\n  function transfer(address recipient, uint256 amount) external returns (bool) {\n    _transfer(msg.sender, recipient, amount);\n    return true;\n  }\n\n\n  /**\n  * @notice _transfer is used for internal transfers\n  * \n  * Events\n  * - Transfer\n  * \n  * Requires\n  *  - Sender cannot be zero\n  *  - recipient cannot be zero \n  *  - sender balance most be = or bigger than amount\n   */\n\n   function _transfer(address sender, address recipient, uint256 amount) internal {\n    require(sender != address(0), \"TeutToken: transfer from zero address\");\n    require(recipient != address(0), \"TeutToken: transfer to zero address\");\n    require(_balances[sender] >= amount, \"TeutToken: cant transfer more than your account holds\");\n\n    _balances[sender] = _balances[sender] - amount;\n    _balances[recipient] = _balances[recipient] + amount;\n\n    emit Transfer(sender, recipient, amount);\n  }\n\n\n   /**\n  * @notice burn is used to destroy tokens on an address\n  * \n  * See {_burn}\n  * Requires\n  *   - msg.sender must be the token owner\n  *\n   */\n  function burn(address account, uint256 amount) public returns(bool) {\n    _burn(account, amount);\n    return true;\n  }\n\n    /**\n  * @notice mint is used to create tokens and assign them to msg.sender\n  * \n  * See {_mint}\n  * Requires\n  *   - msg.sender must be the token owner\n  *\n   */\n  function mint(address account, uint256 amount) public returns(bool){\n    _mint(account, amount);\n    return true;\n  }\n\n}\n\n",
  "sourcePath": "/home/teutonium/Documents/Projects/dev-token/contracts/TeutToken.sol",
  "compiler": {
    "name": "solc",
    "version": "0.8.4+commit.c7e474f2.Emscripten.clang"
  },
  "schemaVersion": "3.4.4",
  "updatedAt": "2022-02-11T17:19:42.935Z",
  "networkType": "ethereum",
  "devdoc": {
    "kind": "dev",
    "methods": {},
    "version": 1
  },
  "userdoc": {
    "events": {
      "Transfer(address,address,uint256)": {
        "notice": "Events are created below. Transfer event is a event that notify the blockchain that a transfer of assets has taken place"
      }
    },
    "kind": "user",
    "methods": {
      "balanceOf(address)": {
        "notice": "balanceOf will return the account balance for the given account"
      },
      "burn(address,uint256)": {
        "notice": "burn is used to destroy tokens on an address  See {_burn} Requires   - msg.sender must be the token owner"
      },
      "constructor": {
        "notice": "constructor will be triggered when we create the Smart contract _name = name of the token _short_symbol = Short Symbol name for the token token_decimals = The decimal precision of the Token, defaults 18 _totalSupply is how much Tokens there are totally "
      },
      "decimals()": {
        "notice": "decimals will return the number of decimal precision the Token is deployed with"
      },
      "mint(address,uint256)": {
        "notice": "mint is used to create tokens and assign them to msg.sender  See {_mint} Requires   - msg.sender must be the token owner"
      },
      "name()": {
        "notice": "name will return the Token's symbol "
      },
      "symbol()": {
        "notice": "symbol will return the Token's symbol "
      },
      "totalSupply()": {
        "notice": "totalSupply will return the tokens total supply of tokens"
      },
      "transfer(address,uint256)": {
        "notice": "transfer is used to transfer funds from the sender to the recipient This function is only callable from outside the contract. For internal usage see  _transfer Requires - Caller cannot be zero - Caller must have a balance = or bigger than amount"
      }
    },
    "notice": "DevToken is a development token that we use to learn how to code solidity  and what BEP-20 interface requires",
    "version": 1
  }
}